{
  "_format": "hh-sol-artifact-1",
  "contractName": "ProductMarket",
  "sourceName": "contracts/productDuplication.sol",
  "abi": [
    {
      "inputs": [],
      "stateMutability": "nonpayable",
      "type": "constructor"
    },
    {
      "anonymous": false,
      "inputs": [
        {
          "indexed": true,
          "internalType": "address",
          "name": "farmer",
          "type": "address"
        },
        {
          "indexed": false,
          "internalType": "string",
          "name": "productName",
          "type": "string"
        }
      ],
      "name": "ProductPosted",
      "type": "event"
    },
    {
      "inputs": [],
      "name": "owner",
      "outputs": [
        {
          "internalType": "address",
          "name": "",
          "type": "address"
        }
      ],
      "stateMutability": "view",
      "type": "function"
    },
    {
      "inputs": [
        {
          "internalType": "string",
          "name": "productName",
          "type": "string"
        }
      ],
      "name": "postProduct",
      "outputs": [],
      "stateMutability": "nonpayable",
      "type": "function"
    },
    {
      "inputs": [
        {
          "internalType": "string",
          "name": "",
          "type": "string"
        }
      ],
      "name": "productExists",
      "outputs": [
        {
          "internalType": "bool",
          "name": "",
          "type": "bool"
        }
      ],
      "stateMutability": "view",
      "type": "function"
    },
    {
      "inputs": [
        {
          "internalType": "address",
          "name": "newOwner",
          "type": "address"
        }
      ],
      "name": "setOwner",
      "outputs": [],
      "stateMutability": "nonpayable",
      "type": "function"
    }
  ],
  "bytecode": "0x608060405234801561001057600080fd5b50336000806101000a81548173ffffffffffffffffffffffffffffffffffffffff021916908373ffffffffffffffffffffffffffffffffffffffff1602179055506107b4806100606000396000f3fe608060405234801561001057600080fd5b506004361061004c5760003560e01c806313af4035146100515780638addc0511461006d5780638da5cb5b1461009d57806393644bc9146100bb575b600080fd5b61006b60048036038101906100669190610367565b6100d7565b005b610087600480360381019061008291906104da565b6101a8565b604051610094919061053e565b60405180910390f35b6100a56101de565b6040516100b29190610568565b60405180910390f35b6100d560048036038101906100d091906104da565b610202565b005b60008054906101000a900473ffffffffffffffffffffffffffffffffffffffff1673ffffffffffffffffffffffffffffffffffffffff163373ffffffffffffffffffffffffffffffffffffffff1614610165576040517f08c379a000000000000000000000000000000000000000000000000000000000815260040161015c90610606565b60405180910390fd5b806000806101000a81548173ffffffffffffffffffffffffffffffffffffffff021916908373ffffffffffffffffffffffffffffffffffffffff16021790555050565b6001818051602081018201805184825260208301602085012081835280955050505050506000915054906101000a900460ff1681565b60008054906101000a900473ffffffffffffffffffffffffffffffffffffffff1681565b60018160405161021291906106a0565b908152602001604051809103902060009054906101000a900460ff161561026e576040517f08c379a000000000000000000000000000000000000000000000000000000000815260040161026590610703565b60405180910390fd5b6001808260405161027f91906106a0565b908152602001604051809103902060006101000a81548160ff0219169083151502179055503373ffffffffffffffffffffffffffffffffffffffff167f0aeac2c06c6c2478a087a9ab8ec989469ebb9ae4afd563e0be42e71e61ee2b01826040516102ea919061075c565b60405180910390a250565b6000604051905090565b600080fd5b600080fd5b600073ffffffffffffffffffffffffffffffffffffffff82169050919050565b600061033482610309565b9050919050565b61034481610329565b811461034f57600080fd5b50565b6000813590506103618161033b565b92915050565b60006020828403121561037d5761037c6102ff565b5b600061038b84828501610352565b91505092915050565b600080fd5b600080fd5b6000601f19601f8301169050919050565b7f4e487b7100000000000000000000000000000000000000000000000000000000600052604160045260246000fd5b6103e78261039e565b810181811067ffffffffffffffff82111715610406576104056103af565b5b80604052505050565b60006104196102f5565b905061042582826103de565b919050565b600067ffffffffffffffff821115610445576104446103af565b5b61044e8261039e565b9050602081019050919050565b82818337600083830152505050565b600061047d6104788461042a565b61040f565b90508281526020810184848401111561049957610498610399565b5b6104a484828561045b565b509392505050565b600082601f8301126104c1576104c0610394565b5b81356104d184826020860161046a565b91505092915050565b6000602082840312156104f0576104ef6102ff565b5b600082013567ffffffffffffffff81111561050e5761050d610304565b5b61051a848285016104ac565b91505092915050565b60008115159050919050565b61053881610523565b82525050565b6000602082019050610553600083018461052f565b92915050565b61056281610329565b82525050565b600060208201905061057d6000830184610559565b92915050565b600082825260208201905092915050565b7f4f6e6c7920636f6e7472616374206f776e65722063616e20706572666f726d2060008201527f7468697320616374696f6e000000000000000000000000000000000000000000602082015250565b60006105f0602b83610583565b91506105fb82610594565b604082019050919050565b6000602082019050818103600083015261061f816105e3565b9050919050565b600081519050919050565b600081905092915050565b60005b8381101561065a57808201518184015260208101905061063f565b83811115610669576000848401525b50505050565b600061067a82610626565b6106848185610631565b935061069481856020860161063c565b80840191505092915050565b60006106ac828461066f565b915081905092915050565b7f50726f6475637420616c72656164792065786973747300000000000000000000600082015250565b60006106ed601683610583565b91506106f8826106b7565b602082019050919050565b6000602082019050818103600083015261071c816106e0565b9050919050565b600061072e82610626565b6107388185610583565b935061074881856020860161063c565b6107518161039e565b840191505092915050565b600060208201905081810360008301526107768184610723565b90509291505056fea2646970667358221220adb03ff8a2381027dd850241ff7ea028ffd48ca45520fcca96f87a9d97a3d38564736f6c63430008090033",
  "linkReferences": {},
  "deployedLinkReferences": {}
}