{
  "_format": "hh-sol-artifact-1",
  "contractName": "LandRentContract",
  "sourceName": "contracts/landrent.sol",
  "abi": [
    {
      "inputs": [
        {
          "internalType": "uint256",
          "name": "_rentAmount",
          "type": "uint256"
        },
        {
          "internalType": "uint256",
          "name": "_rentDuration",
          "type": "uint256"
        }
      ],
      "stateMutability": "nonpayable",
      "type": "constructor"
    },
    {
      "anonymous": false,
      "inputs": [
        {
          "indexed": true,
          "internalType": "address",
          "name": "_farmer",
          "type": "address"
        },
        {
          "indexed": false,
          "internalType": "uint256",
          "name": "_endTime",
          "type": "uint256"
        }
      ],
      "name": "RentEnded",
      "type": "event"
    },
    {
      "anonymous": false,
      "inputs": [
        {
          "indexed": true,
          "internalType": "address",
          "name": "_farmer",
          "type": "address"
        },
        {
          "indexed": false,
          "internalType": "uint256",
          "name": "_startTime",
          "type": "uint256"
        }
      ],
      "name": "RentStarted",
      "type": "event"
    },
    {
      "inputs": [],
      "name": "endRent",
      "outputs": [],
      "stateMutability": "nonpayable",
      "type": "function"
    },
    {
      "inputs": [],
      "name": "farmer",
      "outputs": [
        {
          "internalType": "address",
          "name": "",
          "type": "address"
        }
      ],
      "stateMutability": "view",
      "type": "function"
    },
    {
      "inputs": [],
      "name": "getRemainingRentTime",
      "outputs": [
        {
          "internalType": "uint256",
          "name": "",
          "type": "uint256"
        }
      ],
      "stateMutability": "view",
      "type": "function"
    },
    {
      "inputs": [],
      "name": "isRentActive",
      "outputs": [
        {
          "internalType": "bool",
          "name": "",
          "type": "bool"
        }
      ],
      "stateMutability": "view",
      "type": "function"
    },
    {
      "inputs": [],
      "name": "owner",
      "outputs": [
        {
          "internalType": "address payable",
          "name": "",
          "type": "address"
        }
      ],
      "stateMutability": "view",
      "type": "function"
    },
    {
      "inputs": [],
      "name": "payRent",
      "outputs": [],
      "stateMutability": "payable",
      "type": "function"
    },
    {
      "inputs": [],
      "name": "rentAmount",
      "outputs": [
        {
          "internalType": "uint256",
          "name": "",
          "type": "uint256"
        }
      ],
      "stateMutability": "view",
      "type": "function"
    },
    {
      "inputs": [],
      "name": "rentDuration",
      "outputs": [
        {
          "internalType": "uint256",
          "name": "",
          "type": "uint256"
        }
      ],
      "stateMutability": "view",
      "type": "function"
    },
    {
      "inputs": [],
      "name": "rentStartTime",
      "outputs": [
        {
          "internalType": "uint256",
          "name": "",
          "type": "uint256"
        }
      ],
      "stateMutability": "view",
      "type": "function"
    },
    {
      "inputs": [
        {
          "internalType": "address",
          "name": "_farmer",
          "type": "address"
        }
      ],
      "name": "startRent",
      "outputs": [],
      "stateMutability": "payable",
      "type": "function"
    }
  ],
  "bytecode": "0x608060405234801561001057600080fd5b506040516200104138038062001041833981810160405281019061003491906100c4565b336000806101000a81548173ffffffffffffffffffffffffffffffffffffffff021916908373ffffffffffffffffffffffffffffffffffffffff16021790555081600281905550806003819055505050610104565b600080fd5b6000819050919050565b6100a18161008e565b81146100ac57600080fd5b50565b6000815190506100be81610098565b92915050565b600080604083850312156100db576100da610089565b5b60006100e9858286016100af565b92505060206100fa858286016100af565b9150509250929050565b610f2d80620001146000396000f3fe6080604052600436106100915760003560e01c8063bf90935011610059578063bf90935014610138578063c6a5d8de14610163578063d811fcf01461017f578063f8ef1e13146101aa578063fee29750146101d557610091565b806321c329761461009657806380b33f8f146100ad5780638da5cb5b146100d85780639a133deb14610103578063a709c4fe1461012e575b600080fd5b3480156100a257600080fd5b506100ab610200565b005b3480156100b957600080fd5b506100c26103ac565b6040516100cf919061092b565b60405180910390f35b3480156100e457600080fd5b506100ed610407565b6040516100fa9190610987565b60405180910390f35b34801561010f57600080fd5b5061011861042b565b60405161012591906109bd565b60405180910390f35b61013661043e565b005b34801561014457600080fd5b5061014d610616565b60405161015a919061092b565b60405180910390f35b61017d60048036038101906101789190610a1b565b61061c565b005b34801561018b57600080fd5b506101946107f4565b6040516101a19190610a57565b60405180910390f35b3480156101b657600080fd5b506101bf61081a565b6040516101cc919061092b565b60405180910390f35b3480156101e157600080fd5b506101ea610820565b6040516101f7919061092b565b60405180910390f35b60008054906101000a900473ffffffffffffffffffffffffffffffffffffffff1673ffffffffffffffffffffffffffffffffffffffff163373ffffffffffffffffffffffffffffffffffffffff161461028e576040517f08c379a000000000000000000000000000000000000000000000000000000000815260040161028590610af5565b60405180910390fd5b600560009054906101000a900460ff166102dd576040517f08c379a00000000000000000000000000000000000000000000000000000000081526004016102d490610b61565b60405180910390fd5b6000600560006101000a81548160ff021916908315150217905550600160009054906101000a900473ffffffffffffffffffffffffffffffffffffffff1673ffffffffffffffffffffffffffffffffffffffff167f128a640dc8d819107c775aa641d9f9f344ede75bc93cf5e434006f7dcaebbd2d42604051610360919061092b565b60405180910390a26000600160006101000a81548173ffffffffffffffffffffffffffffffffffffffff021916908373ffffffffffffffffffffffffffffffffffffffff160217905550565b6000600560009054906101000a900460ff1680156103d857506003546004546103d59190610bb0565b42105b156103ff57426003546004546103ee9190610bb0565b6103f89190610c06565b9050610404565b600090505b90565b60008054906101000a900473ffffffffffffffffffffffffffffffffffffffff1681565b600560009054906101000a900460ff1681565b600160009054906101000a900473ffffffffffffffffffffffffffffffffffffffff1673ffffffffffffffffffffffffffffffffffffffff163373ffffffffffffffffffffffffffffffffffffffff16146104ce576040517f08c379a00000000000000000000000000000000000000000000000000000000081526004016104c590610cac565b60405180910390fd5b600560009054906101000a900460ff1661051d576040517f08c379a000000000000000000000000000000000000000000000000000000000815260040161051490610b61565b60405180910390fd5b60035460045461052d9190610bb0565b421061056e576040517f08c379a000000000000000000000000000000000000000000000000000000000815260040161056590610d18565b60405180910390fd5b6105ad6040518060400160405280600e81526020017f52656365697665642072656e743a00000000000000000000000000000000000081525034610826565b60008054906101000a900473ffffffffffffffffffffffffffffffffffffffff1673ffffffffffffffffffffffffffffffffffffffff166108fc349081150290604051600060405180830381858888f19350505050158015610613573d6000803e3d6000fd5b50565b60045481565b60008054906101000a900473ffffffffffffffffffffffffffffffffffffffff1673ffffffffffffffffffffffffffffffffffffffff163373ffffffffffffffffffffffffffffffffffffffff16146106aa576040517f08c379a00000000000000000000000000000000000000000000000000000000081526004016106a190610af5565b60405180910390fd5b600560009054906101000a900460ff16156106fa576040517f08c379a00000000000000000000000000000000000000000000000000000000081526004016106f190610d84565b60405180910390fd5b80600160006101000a81548173ffffffffffffffffffffffffffffffffffffffff021916908373ffffffffffffffffffffffffffffffffffffffff160217905550600254341461077f576040517f08c379a000000000000000000000000000000000000000000000000000000000815260040161077690610df0565b60405180910390fd5b426004819055506001600560006101000a81548160ff0219169083151502179055508073ffffffffffffffffffffffffffffffffffffffff167ffa61c33a128fd3b27a130ea414689c5c35afcc725b90ca40112a34eddeb11fc86004546040516107e9919061092b565b60405180910390a250565b600160009054906101000a900473ffffffffffffffffffffffffffffffffffffffff1681565b60025481565b60035481565b6108be828260405160240161083c929190610e98565b6040516020818303038152906040527fb60e72cc000000000000000000000000000000000000000000000000000000007bffffffffffffffffffffffffffffffffffffffffffffffffffffffff19166020820180517bffffffffffffffffffffffffffffffffffffffffffffffffffffffff83818316178352505050506108c2565b5050565b6108d9816108d16108dc6108fd565b63ffffffff16565b50565b60006a636f6e736f6c652e6c6f679050600080835160208501845afa505050565b610908819050919050565b610910610ec8565b565b6000819050919050565b61092581610912565b82525050565b6000602082019050610940600083018461091c565b92915050565b600073ffffffffffffffffffffffffffffffffffffffff82169050919050565b600061097182610946565b9050919050565b61098181610966565b82525050565b600060208201905061099c6000830184610978565b92915050565b60008115159050919050565b6109b7816109a2565b82525050565b60006020820190506109d260008301846109ae565b92915050565b600080fd5b60006109e882610946565b9050919050565b6109f8816109dd565b8114610a0357600080fd5b50565b600081359050610a15816109ef565b92915050565b600060208284031215610a3157610a306109d8565b5b6000610a3f84828501610a06565b91505092915050565b610a51816109dd565b82525050565b6000602082019050610a6c6000830184610a48565b92915050565b600082825260208201905092915050565b7f4f6e6c79206f776e65722063616e2063616c6c20746869732066756e6374696f60008201527f6e00000000000000000000000000000000000000000000000000000000000000602082015250565b6000610adf602183610a72565b9150610aea82610a83565b604082019050919050565b60006020820190508181036000830152610b0e81610ad2565b9050919050565b7f4e6f206163746976652072656e74000000000000000000000000000000000000600082015250565b6000610b4b600e83610a72565b9150610b5682610b15565b602082019050919050565b60006020820190508181036000830152610b7a81610b3e565b9050919050565b7f4e487b7100000000000000000000000000000000000000000000000000000000600052601160045260246000fd5b6000610bbb82610912565b9150610bc683610912565b9250827fffffffffffffffffffffffffffffffffffffffffffffffffffffffffffffffff03821115610bfb57610bfa610b81565b5b828201905092915050565b6000610c1182610912565b9150610c1c83610912565b925082821015610c2f57610c2e610b81565b5b828203905092915050565b7f4f6e6c79206661726d65722063616e2063616c6c20746869732066756e63746960008201527f6f6e000000000000000000000000000000000000000000000000000000000000602082015250565b6000610c96602283610a72565b9150610ca182610c3a565b604082019050919050565b60006020820190508181036000830152610cc581610c89565b9050919050565b7f52656e7420706572696f64206578706972656400000000000000000000000000600082015250565b6000610d02601383610a72565b9150610d0d82610ccc565b602082019050919050565b60006020820190508181036000830152610d3181610cf5565b9050919050565b7f52656e7420697320616c72656164792061637469766500000000000000000000600082015250565b6000610d6e601683610a72565b9150610d7982610d38565b602082019050919050565b60006020820190508181036000830152610d9d81610d61565b9050919050565b7f496e697469616c2072656e74207061796d656e74207265717569726564000000600082015250565b6000610dda601d83610a72565b9150610de582610da4565b602082019050919050565b60006020820190508181036000830152610e0981610dcd565b9050919050565b600081519050919050565b60005b83811015610e39578082015181840152602081019050610e1e565b83811115610e48576000848401525b50505050565b6000601f19601f8301169050919050565b6000610e6a82610e10565b610e748185610a72565b9350610e84818560208601610e1b565b610e8d81610e4e565b840191505092915050565b60006040820190508181036000830152610eb28185610e5f565b9050610ec1602083018461091c565b9392505050565b7f4e487b7100000000000000000000000000000000000000000000000000000000600052605160045260246000fdfea2646970667358221220b422195747215beff18308f2a8b5f57ea300e071b05773a26a84c2b4d716ddc364736f6c63430008090033",
  "linkReferences": {},
  "deployedLinkReferences": {}
}