{
  "_format": "hh-sol-artifact-1",
  "contractName": "ProductReview",
  "sourceName": "contracts/reviewDuplication.sol",
  "abi": [
    {
      "anonymous": false,
      "inputs": [
        {
          "indexed": true,
          "internalType": "address",
          "name": "reviewer",
          "type": "address"
        },
        {
          "indexed": true,
          "internalType": "string",
          "name": "email",
          "type": "string"
        },
        {
          "indexed": true,
          "internalType": "uint256",
          "name": "productId",
          "type": "uint256"
        },
        {
          "indexed": false,
          "internalType": "string",
          "name": "content",
          "type": "string"
        },
        {
          "indexed": false,
          "internalType": "uint8",
          "name": "rating",
          "type": "uint8"
        }
      ],
      "name": "ReviewSubmitted",
      "type": "event"
    },
    {
      "inputs": [
        {
          "internalType": "uint256",
          "name": "_productId",
          "type": "uint256"
        },
        {
          "internalType": "uint256",
          "name": "_index",
          "type": "uint256"
        }
      ],
      "name": "getReview",
      "outputs": [
        {
          "internalType": "address",
          "name": "reviewer",
          "type": "address"
        },
        {
          "internalType": "string",
          "name": "email",
          "type": "string"
        },
        {
          "internalType": "string",
          "name": "content",
          "type": "string"
        },
        {
          "internalType": "uint8",
          "name": "rating",
          "type": "uint8"
        }
      ],
      "stateMutability": "view",
      "type": "function"
    },
    {
      "inputs": [
        {
          "internalType": "uint256",
          "name": "_productId",
          "type": "uint256"
        }
      ],
      "name": "getReviewCount",
      "outputs": [
        {
          "internalType": "uint256",
          "name": "",
          "type": "uint256"
        }
      ],
      "stateMutability": "view",
      "type": "function"
    },
    {
      "inputs": [
        {
          "internalType": "uint256",
          "name": "",
          "type": "uint256"
        },
        {
          "internalType": "string",
          "name": "",
          "type": "string"
        }
      ],
      "name": "hasReviewed",
      "outputs": [
        {
          "internalType": "bool",
          "name": "",
          "type": "bool"
        }
      ],
      "stateMutability": "view",
      "type": "function"
    },
    {
      "inputs": [
        {
          "internalType": "uint256",
          "name": "",
          "type": "uint256"
        },
        {
          "internalType": "uint256",
          "name": "",
          "type": "uint256"
        }
      ],
      "name": "reviews",
      "outputs": [
        {
          "internalType": "address",
          "name": "reviewer",
          "type": "address"
        },
        {
          "internalType": "string",
          "name": "email",
          "type": "string"
        },
        {
          "internalType": "uint256",
          "name": "productId",
          "type": "uint256"
        },
        {
          "internalType": "string",
          "name": "content",
          "type": "string"
        },
        {
          "internalType": "uint8",
          "name": "rating",
          "type": "uint8"
        }
      ],
      "stateMutability": "view",
      "type": "function"
    },
    {
      "inputs": [
        {
          "internalType": "uint256",
          "name": "_productId",
          "type": "uint256"
        },
        {
          "internalType": "string",
          "name": "_email",
          "type": "string"
        },
        {
          "internalType": "string",
          "name": "_content",
          "type": "string"
        },
        {
          "internalType": "uint8",
          "name": "_rating",
          "type": "uint8"
        }
      ],
      "name": "submitReview",
      "outputs": [],
      "stateMutability": "nonpayable",
      "type": "function"
    }
  ],
  "bytecode": "0x608060405234801561001057600080fd5b50610f9a806100206000396000f3fe608060405234801561001057600080fd5b50600436106100575760003560e01c80635d75135a1461005c578063a7264f881461008c578063bd0bdcd0146100c0578063dfa505ed146100dc578063e7b143ee1461010f575b600080fd5b61007660048036038101906100719190610880565b61013f565b60405161008391906108bc565b60405180910390f35b6100a660048036038101906100a191906108d7565b61015f565b6040516100b7959493929190610a0d565b60405180910390f35b6100da60048036038101906100d59190610bcf565b6102ef565b005b6100f660048036038101906100f191906108d7565b61054f565b6040516101069493929190610c6e565b60405180910390f35b61012960048036038101906101249190610cc1565b61074e565b6040516101369190610d38565b60405180910390f35b600060016000838152602001908152602001600020805490509050919050565b6001602052816000526040600020818154811061017b57600080fd5b9060005260206000209060050201600091509150508060000160009054906101000a900473ffffffffffffffffffffffffffffffffffffffff16908060010180546101c590610d82565b80601f01602080910402602001604051908101604052809291908181526020018280546101f190610d82565b801561023e5780601f106102135761010080835404028352916020019161023e565b820191906000526020600020905b81548152906001019060200180831161022157829003601f168201915b50505050509080600201549080600301805461025990610d82565b80601f016020809104026020016040519081016040528092919081815260200182805461028590610d82565b80156102d25780601f106102a7576101008083540402835291602001916102d2565b820191906000526020600020905b8154815290600101906020018083116102b557829003601f168201915b5050505050908060040160009054906101000a900460ff16905085565b6000808581526020019081526020016000208360405161030f9190610df0565b908152602001604051809103902060009054906101000a900460ff161561036b576040517f08c379a000000000000000000000000000000000000000000000000000000000815260040161036290610e79565b60405180910390fd5b60006040518060a001604052803373ffffffffffffffffffffffffffffffffffffffff1681526020018581526020018681526020018481526020018360ff1681525090506001600086815260200190815260200160002081908060018154018082558091505060019003906000526020600020906005020160009091909190915060008201518160000160006101000a81548173ffffffffffffffffffffffffffffffffffffffff021916908373ffffffffffffffffffffffffffffffffffffffff160217905550602082015181600101908051906020019061044f929190610793565b50604082015181600201556060820151816003019080519060200190610476929190610793565b5060808201518160040160006101000a81548160ff021916908360ff16021790555050506001600080878152602001908152602001600020856040516104bc9190610df0565b908152602001604051809103902060006101000a81548160ff02191690831515021790555084846040516104f09190610df0565b60405180910390203373ffffffffffffffffffffffffffffffffffffffff167fee9d4494a709117b006283f3d3e937b267e6b934d849a72194cced59d5e56a038686604051610540929190610e99565b60405180910390a45050505050565b60006060806000600160008781526020019081526020016000208054905085106105ae576040517f08c379a00000000000000000000000000000000000000000000000000000000081526004016105a590610f15565b60405180910390fd5b60006001600088815260200190815260200160002086815481106105d5576105d4610f35565b5b906000526020600020906005020190508060000160009054906101000a900473ffffffffffffffffffffffffffffffffffffffff1681600101826003018360040160009054906101000a900460ff1682805461063090610d82565b80601f016020809104026020016040519081016040528092919081815260200182805461065c90610d82565b80156106a95780601f1061067e576101008083540402835291602001916106a9565b820191906000526020600020905b81548152906001019060200180831161068c57829003601f168201915b505050505092508180546106bc90610d82565b80601f01602080910402602001604051908101604052809291908181526020018280546106e890610d82565b80156107355780601f1061070a57610100808354040283529160200191610735565b820191906000526020600020905b81548152906001019060200180831161071857829003601f168201915b5050505050915094509450945094505092959194509250565b6000602052816000526040600020818051602081018201805184825260208301602085012081835280955050505050506000915091509054906101000a900460ff1681565b82805461079f90610d82565b90600052602060002090601f0160209004810192826107c15760008555610808565b82601f106107da57805160ff1916838001178555610808565b82800160010185558215610808579182015b828111156108075782518255916020019190600101906107ec565b5b5090506108159190610819565b5090565b5b8082111561083257600081600090555060010161081a565b5090565b6000604051905090565b600080fd5b600080fd5b6000819050919050565b61085d8161084a565b811461086857600080fd5b50565b60008135905061087a81610854565b92915050565b60006020828403121561089657610895610840565b5b60006108a48482850161086b565b91505092915050565b6108b68161084a565b82525050565b60006020820190506108d160008301846108ad565b92915050565b600080604083850312156108ee576108ed610840565b5b60006108fc8582860161086b565b925050602061090d8582860161086b565b9150509250929050565b600073ffffffffffffffffffffffffffffffffffffffff82169050919050565b600061094282610917565b9050919050565b61095281610937565b82525050565b600081519050919050565b600082825260208201905092915050565b60005b83811015610992578082015181840152602081019050610977565b838111156109a1576000848401525b50505050565b6000601f19601f8301169050919050565b60006109c382610958565b6109cd8185610963565b93506109dd818560208601610974565b6109e6816109a7565b840191505092915050565b600060ff82169050919050565b610a07816109f1565b82525050565b600060a082019050610a226000830188610949565b8181036020830152610a3481876109b8565b9050610a4360408301866108ad565b8181036060830152610a5581856109b8565b9050610a6460808301846109fe565b9695505050505050565b600080fd5b600080fd5b7f4e487b7100000000000000000000000000000000000000000000000000000000600052604160045260246000fd5b610ab0826109a7565b810181811067ffffffffffffffff82111715610acf57610ace610a78565b5b80604052505050565b6000610ae2610836565b9050610aee8282610aa7565b919050565b600067ffffffffffffffff821115610b0e57610b0d610a78565b5b610b17826109a7565b9050602081019050919050565b82818337600083830152505050565b6000610b46610b4184610af3565b610ad8565b905082815260208101848484011115610b6257610b61610a73565b5b610b6d848285610b24565b509392505050565b600082601f830112610b8a57610b89610a6e565b5b8135610b9a848260208601610b33565b91505092915050565b610bac816109f1565b8114610bb757600080fd5b50565b600081359050610bc981610ba3565b92915050565b60008060008060808587031215610be957610be8610840565b5b6000610bf78782880161086b565b945050602085013567ffffffffffffffff811115610c1857610c17610845565b5b610c2487828801610b75565b935050604085013567ffffffffffffffff811115610c4557610c44610845565b5b610c5187828801610b75565b9250506060610c6287828801610bba565b91505092959194509250565b6000608082019050610c836000830187610949565b8181036020830152610c9581866109b8565b90508181036040830152610ca981856109b8565b9050610cb860608301846109fe565b95945050505050565b60008060408385031215610cd857610cd7610840565b5b6000610ce68582860161086b565b925050602083013567ffffffffffffffff811115610d0757610d06610845565b5b610d1385828601610b75565b9150509250929050565b60008115159050919050565b610d3281610d1d565b82525050565b6000602082019050610d4d6000830184610d29565b92915050565b7f4e487b7100000000000000000000000000000000000000000000000000000000600052602260045260246000fd5b60006002820490506001821680610d9a57607f821691505b60208210811415610dae57610dad610d53565b5b50919050565b600081905092915050565b6000610dca82610958565b610dd48185610db4565b9350610de4818560208601610974565b80840191505092915050565b6000610dfc8284610dbf565b915081905092915050565b7f596f75206861766520616c72656164792072657669657765642074686973207060008201527f726f647563742077697468207468697320656d61696c2e000000000000000000602082015250565b6000610e63603783610963565b9150610e6e82610e07565b604082019050919050565b60006020820190508181036000830152610e9281610e56565b9050919050565b60006040820190508181036000830152610eb381856109b8565b9050610ec260208301846109fe565b9392505050565b7f496e646578206f7574206f6620626f756e647300000000000000000000000000600082015250565b6000610eff601383610963565b9150610f0a82610ec9565b602082019050919050565b60006020820190508181036000830152610f2e81610ef2565b9050919050565b7f4e487b7100000000000000000000000000000000000000000000000000000000600052603260045260246000fdfea2646970667358221220c21526af5fb625244d50ec5b7db20dc45566d3f8408b3c5cbec226db1a1c23d064736f6c63430008090033",
  "linkReferences": {},
  "deployedLinkReferences": {}
}